{
	"data": {
		"bytecode": {
			"linkReferences": {},
			"object": "60806040525f80553480156011575f80fd5b5061057e8061001f5f395ff3fe608060405234801561000f575f80fd5b506004361061007b575f3560e01c80633e823f79116100595780633e823f79146100d35780636d4ce63c146100ef578063886c6f511461010d578063b779da2f146101295761007b565b80631003e2d21461007f5780631d1e478d1461009b5780631dc05f17146100b7575b5f80fd5b6100996004803603810190610094919061021b565b610145565b005b6100b560048036038101906100b0919061021b565b61015f565b005b6100d160048036038101906100cc919061021b565b610179565b005b6100ed60048036038101906100e8919061021b565b610193565b005b6100f76101ad565b6040516101049190610255565b60405180910390f35b6101276004803603810190610122919061021b565b6101b5565b005b610143600480360381019061013e919061021b565b6101cf565b005b805f80828254610155919061029b565b9250508190555050565b805f8082825461016f91906102ce565b9250508190555050565b805f80828254610189919061030f565b9250508190555050565b805f808282546101a3919061036f565b9250508190555050565b5f8054905090565b805f808282546101c5919061039f565b9250508190555050565b805f546101dc91906104fe565b5f8190555050565b5f80fd5b5f819050919050565b6101fa816101e8565b8114610204575f80fd5b50565b5f81359050610215816101f1565b92915050565b5f602082840312156102305761022f6101e4565b5b5f61023d84828501610207565b91505092915050565b61024f816101e8565b82525050565b5f6020820190506102685f830184610246565b92915050565b7f4e487b71000000000000000000000000000000000000000000000000000000005f52601160045260245ffd5b5f6102a5826101e8565b91506102b0836101e8565b92508282019050808211156102c8576102c761026e565b5b92915050565b5f6102d8826101e8565b91506102e3836101e8565b92508282026102f1816101e8565b915082820484148315176103085761030761026e565b5b5092915050565b5f610319826101e8565b9150610324836101e8565b925082820390508181111561033c5761033b61026e565b5b92915050565b7f4e487b71000000000000000000000000000000000000000000000000000000005f52601260045260245ffd5b5f610379826101e8565b9150610384836101e8565b92508261039457610393610342565b5b828204905092915050565b5f6103a9826101e8565b91506103b4836101e8565b9250826103c4576103c3610342565b5b828206905092915050565b5f8160011c9050919050565b5f808291508390505b600185111561042457808604811115610400576103ff61026e565b5b600185161561040f5780820291505b808102905061041d856103cf565b94506103e4565b94509492505050565b5f8261043c57600190506104f7565b81610449575f90506104f7565b816001811461045f576002811461046957610498565b60019150506104f7565b60ff84111561047b5761047a61026e565b5b8360020a9150848211156104925761049161026e565b5b506104f7565b5060208310610133831016604e8410600b84101617156104cd5782820a9050838111156104c8576104c761026e565b5b6104f7565b6104da84848460016103db565b925090508184048111156104f1576104f061026e565b5b81810290505b9392505050565b5f610508826101e8565b9150610513836101e8565b92506105407fffffffffffffffffffffffffffffffffffffffffffffffffffffffffffffffff848461042d565b90509291505056fea26469706673582212200b13f012bccf373d553768fcc39cb070e578dc588c73de8ba4c83d2d95c55eb664736f6c634300081a0033",
			"opcodes": "PUSH1 0x80 PUSH1 0x40 MSTORE PUSH0 DUP1 SSTORE CALLVALUE DUP1 ISZERO PUSH1 0x11 JUMPI PUSH0 DUP1 REVERT JUMPDEST POP PUSH2 0x57E DUP1 PUSH2 0x1F PUSH0 CODECOPY PUSH0 RETURN INVALID PUSH1 0x80 PUSH1 0x40 MSTORE CALLVALUE DUP1 ISZERO PUSH2 0xF JUMPI PUSH0 DUP1 REVERT JUMPDEST POP PUSH1 0x4 CALLDATASIZE LT PUSH2 0x7B JUMPI PUSH0 CALLDATALOAD PUSH1 0xE0 SHR DUP1 PUSH4 0x3E823F79 GT PUSH2 0x59 JUMPI DUP1 PUSH4 0x3E823F79 EQ PUSH2 0xD3 JUMPI DUP1 PUSH4 0x6D4CE63C EQ PUSH2 0xEF JUMPI DUP1 PUSH4 0x886C6F51 EQ PUSH2 0x10D JUMPI DUP1 PUSH4 0xB779DA2F EQ PUSH2 0x129 JUMPI PUSH2 0x7B JUMP JUMPDEST DUP1 PUSH4 0x1003E2D2 EQ PUSH2 0x7F JUMPI DUP1 PUSH4 0x1D1E478D EQ PUSH2 0x9B JUMPI DUP1 PUSH4 0x1DC05F17 EQ PUSH2 0xB7 JUMPI JUMPDEST PUSH0 DUP1 REVERT JUMPDEST PUSH2 0x99 PUSH1 0x4 DUP1 CALLDATASIZE SUB DUP2 ADD SWAP1 PUSH2 0x94 SWAP2 SWAP1 PUSH2 0x21B JUMP JUMPDEST PUSH2 0x145 JUMP JUMPDEST STOP JUMPDEST PUSH2 0xB5 PUSH1 0x4 DUP1 CALLDATASIZE SUB DUP2 ADD SWAP1 PUSH2 0xB0 SWAP2 SWAP1 PUSH2 0x21B JUMP JUMPDEST PUSH2 0x15F JUMP JUMPDEST STOP JUMPDEST PUSH2 0xD1 PUSH1 0x4 DUP1 CALLDATASIZE SUB DUP2 ADD SWAP1 PUSH2 0xCC SWAP2 SWAP1 PUSH2 0x21B JUMP JUMPDEST PUSH2 0x179 JUMP JUMPDEST STOP JUMPDEST PUSH2 0xED PUSH1 0x4 DUP1 CALLDATASIZE SUB DUP2 ADD SWAP1 PUSH2 0xE8 SWAP2 SWAP1 PUSH2 0x21B JUMP JUMPDEST PUSH2 0x193 JUMP JUMPDEST STOP JUMPDEST PUSH2 0xF7 PUSH2 0x1AD JUMP JUMPDEST PUSH1 0x40 MLOAD PUSH2 0x104 SWAP2 SWAP1 PUSH2 0x255 JUMP JUMPDEST PUSH1 0x40 MLOAD DUP1 SWAP2 SUB SWAP1 RETURN JUMPDEST PUSH2 0x127 PUSH1 0x4 DUP1 CALLDATASIZE SUB DUP2 ADD SWAP1 PUSH2 0x122 SWAP2 SWAP1 PUSH2 0x21B JUMP JUMPDEST PUSH2 0x1B5 JUMP JUMPDEST STOP JUMPDEST PUSH2 0x143 PUSH1 0x4 DUP1 CALLDATASIZE SUB DUP2 ADD SWAP1 PUSH2 0x13E SWAP2 SWAP1 PUSH2 0x21B JUMP JUMPDEST PUSH2 0x1CF JUMP JUMPDEST STOP JUMPDEST DUP1 PUSH0 DUP1 DUP3 DUP3 SLOAD PUSH2 0x155 SWAP2 SWAP1 PUSH2 0x29B JUMP JUMPDEST SWAP3 POP POP DUP2 SWAP1 SSTORE POP POP JUMP JUMPDEST DUP1 PUSH0 DUP1 DUP3 DUP3 SLOAD PUSH2 0x16F SWAP2 SWAP1 PUSH2 0x2CE JUMP JUMPDEST SWAP3 POP POP DUP2 SWAP1 SSTORE POP POP JUMP JUMPDEST DUP1 PUSH0 DUP1 DUP3 DUP3 SLOAD PUSH2 0x189 SWAP2 SWAP1 PUSH2 0x30F JUMP JUMPDEST SWAP3 POP POP DUP2 SWAP1 SSTORE POP POP JUMP JUMPDEST DUP1 PUSH0 DUP1 DUP3 DUP3 SLOAD PUSH2 0x1A3 SWAP2 SWAP1 PUSH2 0x36F JUMP JUMPDEST SWAP3 POP POP DUP2 SWAP1 SSTORE POP POP JUMP JUMPDEST PUSH0 DUP1 SLOAD SWAP1 POP SWAP1 JUMP JUMPDEST DUP1 PUSH0 DUP1 DUP3 DUP3 SLOAD PUSH2 0x1C5 SWAP2 SWAP1 PUSH2 0x39F JUMP JUMPDEST SWAP3 POP POP DUP2 SWAP1 SSTORE POP POP JUMP JUMPDEST DUP1 PUSH0 SLOAD PUSH2 0x1DC SWAP2 SWAP1 PUSH2 0x4FE JUMP JUMPDEST PUSH0 DUP2 SWAP1 SSTORE POP POP JUMP JUMPDEST PUSH0 DUP1 REVERT JUMPDEST PUSH0 DUP2 SWAP1 POP SWAP2 SWAP1 POP JUMP JUMPDEST PUSH2 0x1FA DUP2 PUSH2 0x1E8 JUMP JUMPDEST DUP2 EQ PUSH2 0x204 JUMPI PUSH0 DUP1 REVERT JUMPDEST POP JUMP JUMPDEST PUSH0 DUP2 CALLDATALOAD SWAP1 POP PUSH2 0x215 DUP2 PUSH2 0x1F1 JUMP JUMPDEST SWAP3 SWAP2 POP POP JUMP JUMPDEST PUSH0 PUSH1 0x20 DUP3 DUP5 SUB SLT ISZERO PUSH2 0x230 JUMPI PUSH2 0x22F PUSH2 0x1E4 JUMP JUMPDEST JUMPDEST PUSH0 PUSH2 0x23D DUP5 DUP3 DUP6 ADD PUSH2 0x207 JUMP JUMPDEST SWAP2 POP POP SWAP3 SWAP2 POP POP JUMP JUMPDEST PUSH2 0x24F DUP2 PUSH2 0x1E8 JUMP JUMPDEST DUP3 MSTORE POP POP JUMP JUMPDEST PUSH0 PUSH1 0x20 DUP3 ADD SWAP1 POP PUSH2 0x268 PUSH0 DUP4 ADD DUP5 PUSH2 0x246 JUMP JUMPDEST SWAP3 SWAP2 POP POP JUMP JUMPDEST PUSH32 0x4E487B7100000000000000000000000000000000000000000000000000000000 PUSH0 MSTORE PUSH1 0x11 PUSH1 0x4 MSTORE PUSH1 0x24 PUSH0 REVERT JUMPDEST PUSH0 PUSH2 0x2A5 DUP3 PUSH2 0x1E8 JUMP JUMPDEST SWAP2 POP PUSH2 0x2B0 DUP4 PUSH2 0x1E8 JUMP JUMPDEST SWAP3 POP DUP3 DUP3 ADD SWAP1 POP DUP1 DUP3 GT ISZERO PUSH2 0x2C8 JUMPI PUSH2 0x2C7 PUSH2 0x26E JUMP JUMPDEST JUMPDEST SWAP3 SWAP2 POP POP JUMP JUMPDEST PUSH0 PUSH2 0x2D8 DUP3 PUSH2 0x1E8 JUMP JUMPDEST SWAP2 POP PUSH2 0x2E3 DUP4 PUSH2 0x1E8 JUMP JUMPDEST SWAP3 POP DUP3 DUP3 MUL PUSH2 0x2F1 DUP2 PUSH2 0x1E8 JUMP JUMPDEST SWAP2 POP DUP3 DUP3 DIV DUP5 EQ DUP4 ISZERO OR PUSH2 0x308 JUMPI PUSH2 0x307 PUSH2 0x26E JUMP JUMPDEST JUMPDEST POP SWAP3 SWAP2 POP POP JUMP JUMPDEST PUSH0 PUSH2 0x319 DUP3 PUSH2 0x1E8 JUMP JUMPDEST SWAP2 POP PUSH2 0x324 DUP4 PUSH2 0x1E8 JUMP JUMPDEST SWAP3 POP DUP3 DUP3 SUB SWAP1 POP DUP2 DUP2 GT ISZERO PUSH2 0x33C JUMPI PUSH2 0x33B PUSH2 0x26E JUMP JUMPDEST JUMPDEST SWAP3 SWAP2 POP POP JUMP JUMPDEST PUSH32 0x4E487B7100000000000000000000000000000000000000000000000000000000 PUSH0 MSTORE PUSH1 0x12 PUSH1 0x4 MSTORE PUSH1 0x24 PUSH0 REVERT JUMPDEST PUSH0 PUSH2 0x379 DUP3 PUSH2 0x1E8 JUMP JUMPDEST SWAP2 POP PUSH2 0x384 DUP4 PUSH2 0x1E8 JUMP JUMPDEST SWAP3 POP DUP3 PUSH2 0x394 JUMPI PUSH2 0x393 PUSH2 0x342 JUMP JUMPDEST JUMPDEST DUP3 DUP3 DIV SWAP1 POP SWAP3 SWAP2 POP POP JUMP JUMPDEST PUSH0 PUSH2 0x3A9 DUP3 PUSH2 0x1E8 JUMP JUMPDEST SWAP2 POP PUSH2 0x3B4 DUP4 PUSH2 0x1E8 JUMP JUMPDEST SWAP3 POP DUP3 PUSH2 0x3C4 JUMPI PUSH2 0x3C3 PUSH2 0x342 JUMP JUMPDEST JUMPDEST DUP3 DUP3 MOD SWAP1 POP SWAP3 SWAP2 POP POP JUMP JUMPDEST PUSH0 DUP2 PUSH1 0x1 SHR SWAP1 POP SWAP2 SWAP1 POP JUMP JUMPDEST PUSH0 DUP1 DUP3 SWAP2 POP DUP4 SWAP1 POP JUMPDEST PUSH1 0x1 DUP6 GT ISZERO PUSH2 0x424 JUMPI DUP1 DUP7 DIV DUP2 GT ISZERO PUSH2 0x400 JUMPI PUSH2 0x3FF PUSH2 0x26E JUMP JUMPDEST JUMPDEST PUSH1 0x1 DUP6 AND ISZERO PUSH2 0x40F JUMPI DUP1 DUP3 MUL SWAP2 POP JUMPDEST DUP1 DUP2 MUL SWAP1 POP PUSH2 0x41D DUP6 PUSH2 0x3CF JUMP JUMPDEST SWAP5 POP PUSH2 0x3E4 JUMP JUMPDEST SWAP5 POP SWAP5 SWAP3 POP POP POP JUMP JUMPDEST PUSH0 DUP3 PUSH2 0x43C JUMPI PUSH1 0x1 SWAP1 POP PUSH2 0x4F7 JUMP JUMPDEST DUP2 PUSH2 0x449 JUMPI PUSH0 SWAP1 POP PUSH2 0x4F7 JUMP JUMPDEST DUP2 PUSH1 0x1 DUP2 EQ PUSH2 0x45F JUMPI PUSH1 0x2 DUP2 EQ PUSH2 0x469 JUMPI PUSH2 0x498 JUMP JUMPDEST PUSH1 0x1 SWAP2 POP POP PUSH2 0x4F7 JUMP JUMPDEST PUSH1 0xFF DUP5 GT ISZERO PUSH2 0x47B JUMPI PUSH2 0x47A PUSH2 0x26E JUMP JUMPDEST JUMPDEST DUP4 PUSH1 0x2 EXP SWAP2 POP DUP5 DUP3 GT ISZERO PUSH2 0x492 JUMPI PUSH2 0x491 PUSH2 0x26E JUMP JUMPDEST JUMPDEST POP PUSH2 0x4F7 JUMP JUMPDEST POP PUSH1 0x20 DUP4 LT PUSH2 0x133 DUP4 LT AND PUSH1 0x4E DUP5 LT PUSH1 0xB DUP5 LT AND OR ISZERO PUSH2 0x4CD JUMPI DUP3 DUP3 EXP SWAP1 POP DUP4 DUP2 GT ISZERO PUSH2 0x4C8 JUMPI PUSH2 0x4C7 PUSH2 0x26E JUMP JUMPDEST JUMPDEST PUSH2 0x4F7 JUMP JUMPDEST PUSH2 0x4DA DUP5 DUP5 DUP5 PUSH1 0x1 PUSH2 0x3DB JUMP JUMPDEST SWAP3 POP SWAP1 POP DUP2 DUP5 DIV DUP2 GT ISZERO PUSH2 0x4F1 JUMPI PUSH2 0x4F0 PUSH2 0x26E JUMP JUMPDEST JUMPDEST DUP2 DUP2 MUL SWAP1 POP JUMPDEST SWAP4 SWAP3 POP POP POP JUMP JUMPDEST PUSH0 PUSH2 0x508 DUP3 PUSH2 0x1E8 JUMP JUMPDEST SWAP2 POP PUSH2 0x513 DUP4 PUSH2 0x1E8 JUMP JUMPDEST SWAP3 POP PUSH2 0x540 PUSH32 0xFFFFFFFFFFFFFFFFFFFFFFFFFFFFFFFFFFFFFFFFFFFFFFFFFFFFFFFFFFFFFFFF DUP5 DUP5 PUSH2 0x42D JUMP JUMPDEST SWAP1 POP SWAP3 SWAP2 POP POP JUMP INVALID LOG2 PUSH5 0x6970667358 0x22 SLT KECCAK256 SIGNEXTEND SGT CREATE SLT 0xBC 0xCF CALLDATACOPY RETURNDATASIZE SSTORE CALLDATACOPY PUSH9 0xFCC39CB070E578DC58 DUP13 PUSH20 0xDE8BA4C83D2D95C55EB664736F6C634300081A00 CALLER "
		},
		"gasEstimates": {
			"creation": {
				"codeDepositCost": "281200",
				"executionCost": "5321",
				"totalCost": "286521"
			},
			"external": {
				"add(uint256)": "infinite",
				"divide(uint256)": "infinite",
				"exponentiation(uint256)": "infinite",
				"get()": "2454",
				"modulo(uint256)": "infinite",
				"multipy(uint256)": "infinite",
				"subtract(uint256)": "infinite"
			}
		},
		"methodIdentifiers": {
			"add(uint256)": "1003e2d2",
			"divide(uint256)": "3e823f79",
			"exponentiation(uint256)": "b779da2f",
			"get()": "6d4ce63c",
			"modulo(uint256)": "886c6f51",
			"multipy(uint256)": "1d1e478d",
			"subtract(uint256)": "1dc05f17"
		}
	},
	"abi": [
		{
			"inputs": [
				{
					"internalType": "uint256",
					"name": "num",
					"type": "uint256"
				}
			],
			"name": "add",
			"outputs": [],
			"stateMutability": "nonpayable",
			"type": "function"
		},
		{
			"inputs": [
				{
					"internalType": "uint256",
					"name": "num",
					"type": "uint256"
				}
			],
			"name": "divide",
			"outputs": [],
			"stateMutability": "nonpayable",
			"type": "function"
		},
		{
			"inputs": [
				{
					"internalType": "uint256",
					"name": "num",
					"type": "uint256"
				}
			],
			"name": "exponentiation",
			"outputs": [],
			"stateMutability": "nonpayable",
			"type": "function"
		},
		{
			"inputs": [],
			"name": "get",
			"outputs": [
				{
					"internalType": "uint256",
					"name": "",
					"type": "uint256"
				}
			],
			"stateMutability": "view",
			"type": "function"
		},
		{
			"inputs": [
				{
					"internalType": "uint256",
					"name": "num",
					"type": "uint256"
				}
			],
			"name": "modulo",
			"outputs": [],
			"stateMutability": "nonpayable",
			"type": "function"
		},
		{
			"inputs": [
				{
					"internalType": "uint256",
					"name": "num",
					"type": "uint256"
				}
			],
			"name": "multipy",
			"outputs": [],
			"stateMutability": "nonpayable",
			"type": "function"
		},
		{
			"inputs": [
				{
					"internalType": "uint256",
					"name": "num",
					"type": "uint256"
				}
			],
			"name": "subtract",
			"outputs": [],
			"stateMutability": "nonpayable",
			"type": "function"
		}
	]
}